:100000000C942A000C9447000C9447000C94470071
:100010000C9447000C9447000C9447000C94470044
:100020000C9447000C94AB000C9447000C944700D0
:100030000C9447000C9447000C9447000C94470024
:100040000C9447000C9447000C9447000C94470014
:100050000C94470011241FBECFE5D8E0DEBFCDBF12
:1000600011E0A0E6B0E0EAE5F6E002C005900D92EE
:10007000AA3BB107D9F721E0AAEBB1E001C01D927C
:10008000A83EB207E1F70E94E4000C942B030C9405
:100090000000C59A0000C598089598B3907F98BB5A
:1000A00098B382958F70982B98BB0E944900089551
:1000B000CF93C82FC4980E944D008C2F8295807FCB
:1000C0000E944D008EE08A95F1F7CF91089581E06E
:1000D0000E94580083EF91E00197F1F700C0000003
:1000E000089587B38F6387BB88B3807C88BB85EA1C
:1000F0009EE00197F1F700C0000080E30E944D00F0
:1001000081EE94E00197F1F700C000000E944900E1
:1001100089EF90E00197F1F700C000000E944900CC
:1001200089EF90E00197F1F700C0000080E20E94A3
:100130004D0081EE94E00197F1F700C0000088E2E5
:100140000E9458008CE00E94580086E00E945800EF
:100150000E94670008951F920F920FB60F9211240C
:100160008F939F93EF93FF938CE99FEF9DBD8CBD81
:10017000E0916800F0916900EE0FFF1FE659FF4F14
:1001800080819181019719F481E085BB01C015BA86
:1001900080916800909169000196883A910529F054
:1001A000909369008093680006C081E090E090938E
:1001B000690080936800FF91EF919F918F910F905C
:1001C0000FBE0F901F9018951ABACFEFC1BBC4BBDA
:1001D0008090600090906100A0906200B0906300F9
:1001E000C0906400D0906500E0906600F0906700D9
:1001F000A501940160E070E080E89FE30E9458014F
:100200009B01AC0160E070E080E89FE30E94C501C3
:10021000A70196010E94BE029B01AC0160E074E25E
:1002200084E799E40E94C5010E943702645D7F4F14
:100230007093E7016093E601A501940160E070E02E
:1002400080E89FE30E94C501A70196010E94BE02BB
:100250009B01AC0160E074E284E799E40E94C5016F
:100260000E943702645D7F4F7093BF016093BE01AF
:100270001092BD011092BC011092C1011092C001F8
:100280001092E5011092E4011092C3011092C20194
:100290001092BB011092BA01C4BB81E08EBD94E004
:1002A00099BF85BB8CE98CBD0E9471007894FFCF0B
:1002B0005058BB27AA270E9470010C9484020E9408
:1002C000760238F00E947D0220F039F49F3F19F445
:1002D00026F40C9473020EF4E095E7FB0C946D0287
:1002E000E92F0E94950258F3BA1762077307840733
:1002F000950720F079F4A6F50C94B7020EF4E0957A
:100300000B2EBA2FA02D0B01B90190010C01CA01CF
:10031000A0011124FF27591B99F0593F50F4503E7A
:1003200068F11A16F040A22F232F342F4427585F6C
:10033000F3CF469537952795A795F0405395C9F784
:100340007EF41F16BA0B620B730B840BBAF091503C
:10035000A1F0FF0FBB1F661F771F881FC2F70EC0DB
:10036000BA0F621F731F841F48F4879577956795AE
:10037000B795F7959E3F08F0B0CF9395880F08F09A
:100380009927EE0F9795879508950E94D9010C94AF
:1003900084020E947D0258F00E94760240F029F407
:1003A0005F3F29F00C946D0251110C94B8020C942B
:1003B00073020E94950268F39923B1F3552391F3D8
:1003C000951B550BBB27AA2762177307840738F0C4
:1003D0009F5F5F4F220F331F441FAA1FA9F335D021
:1003E0000E2E3AF0E0E832D091505040E695001CD5
:1003F000CAF72BD0FE2F29D0660F771F881FBB1F8F
:10040000261737074807AB07B0E809F0BB0B802D6C
:10041000BF01FF2793585F4F3AF09E3F510578F098
:100420000C946D020C94B8025F3FE4F3983ED4F351
:10043000869577956795B795F7959F5FC9F7880F6C
:10044000911D9695879597F90895E1E0660F771FBE
:10045000881FBB1F621773078407BA0720F0621B4F
:10046000730B840BBA0BEE1F88F7E09508950E947A
:100470003E026894B1110C94B80208950E949D0246
:1004800088F09F5798F0B92F9927B751B0F0E1F055
:10049000660F771F881F991F1AF0BA95C9F714C005
:1004A000B13091F00E94B702B1E008950C94B70208
:1004B000672F782F8827B85F39F0B93FCCF386953E
:1004C00077956795B395D9F73EF49095809570959B
:1004D00061957F4F8F4F9F4F089597F99F6780E8F1
:1004E00070E060E008959FEF80EC089500240A9486
:1004F0001616170618060906089500240A941216FF
:100500001306140605060895092E0394000C11F431
:10051000882352F0BB0F40F4BF2B11F460FF04C0DE
:100520006F5F7F4F8F4F9F4F089557FD9058440F37
:10053000551F59F05F3F71F04795880F97FB991F42
:1005400061F09F3F79F087950895121613061406FF
:10055000551FF2CF4695F1DF08C01616170618068C
:10056000991FF1CF86957105610508940895E89467
:10057000BB2766277727CB0197F908950E94D10200
:100580000C9484020E94760238F00E947D0220F0D2
:10059000952311F00C946D020C94730211240C94A9
:1005A000B8020E94950270F3959FC1F3950F50E039
:1005B000551F629FF001729FBB27F00DB11D639F15
:1005C000AA27F00DB11DAA1F649F6627B00DA11DBB
:1005D000661F829F2227B00DA11D621F739FB00D61
:1005E000A11D621F839FA00D611D221F749F3327D1
:1005F000A00D611D231F849F600D211D822F762F6A
:100600006A2F11249F5750409AF0F1F088234AF046
:10061000EE0FFF1FBB1F661F771F881F91505040B2
:10062000A9F79E3F510580F00C946D020C94B8021E
:100630005F3FE4F3983ED4F3869577956795B79539
:10064000F795E7959F5FC1F7FE2B880F911D969553
:0A065000879597F90895F894FFCFFD
:10065A009A99193F00409C450100010000000100E1
:10066A00000001000000010000000100000001007C
:10067A00000001000000010001000000000001006C
:10068A00010000000000010001000000000001005C
:10069A00010001000100010000000000000001004B
:1006AA00010001000000000000000100010001003B
:1006BA00010001000100010000000000000000002C
:1006CA000100010001000100010001000100010018
:1006DA00010001000000000000000000000001000D
:1006EA0001000100010001000100010001000100F8
:1006FA0001000100000000000000000000000000EE
:10070A0000000100010001000100010001000100D8
:10071A0000000000000000000000000000000100CE
:10072A0001000100010001000100010000000000B9
:10073A0000000000000000000000010001000100AC
:10074A00010001000000000000000000000001009C
:10075A000100010001000100010001000100010087
:10076A00000000000000000001000100010001007B
:10077A00010001000100010000000000000001006A
:10078A00010001000000000000000100010001005A
:10079A00010000000000010001000000000001004B
:0A07AA000100000000000100010042
:00000001FF
